{
  "contractName": "InstitutesInteraction",
  "abi": [
    {
      "inputs": [
        {
          "internalType": "contract IPatientX",
          "name": "_address",
          "type": "address"
        },
        {
          "internalType": "string",
          "name": "_name",
          "type": "string"
        }
      ],
      "name": "enlistMedicalInstitute",
      "outputs": [],
      "stateMutability": "nonpayable",
      "type": "function"
    },
    {
      "inputs": [
        {
          "internalType": "address",
          "name": "_address",
          "type": "address"
        }
      ],
      "name": "getMedicalExaminationsShareable",
      "outputs": [
        {
          "components": [
            {
              "internalType": "address",
              "name": "doctorAddress",
              "type": "address"
            },
            {
              "internalType": "address",
              "name": "patientAddress",
              "type": "address"
            },
            {
              "internalType": "string",
              "name": "data",
              "type": "string"
            }
          ],
          "internalType": "struct MyLibrary.MedicalExamination[]",
          "name": "",
          "type": "tuple[]"
        }
      ],
      "stateMutability": "payable",
      "type": "function",
      "payable": true
    }
  ],
  "bytecode": "0x608060405234801561001057600080fd5b5061088e806100206000396000f3fe6080604052600436106100295760003560e01c80634a1ac8d31461002e5780635ff29c9614610057575b600080fd5b34801561003a57600080fd5b5061005560048036038101906100509190610268565b610087565b005b610071600480360381019061006c91906102f4565b6100f9565b60405161007e91906104db565b60405180910390f35b8273ffffffffffffffffffffffffffffffffffffffff166342aedbb083836040518363ffffffff1660e01b81526004016100c292919061054a565b600060405180830381600087803b1580156100dc57600080fd5b505af11580156100f0573d6000803e3d6000fd5b50505050505050565b606060008290508073ffffffffffffffffffffffffffffffffffffffff16631277762b346040518263ffffffff1660e01b815260040160006040518083038185885af115801561014d573d6000803e3d6000fd5b50505050506040513d6000823e3d601f19601f82011682018060405250810190610177919061080f565b915050919050565b6000604051905090565b600080fd5b600080fd5b600073ffffffffffffffffffffffffffffffffffffffff82169050919050565b60006101be82610193565b9050919050565b60006101d0826101b3565b9050919050565b6101e0816101c5565b81146101eb57600080fd5b50565b6000813590506101fd816101d7565b92915050565b600080fd5b600080fd5b600080fd5b60008083601f84011261022857610227610203565b5b8235905067ffffffffffffffff81111561024557610244610208565b5b6020830191508360018202830111156102615761026061020d565b5b9250929050565b60008060006040848603121561028157610280610189565b5b600061028f868287016101ee565b935050602084013567ffffffffffffffff8111156102b0576102af61018e565b5b6102bc86828701610212565b92509250509250925092565b6102d1816101b3565b81146102dc57600080fd5b50565b6000813590506102ee816102c8565b92915050565b60006020828403121561030a57610309610189565b5b6000610318848285016102df565b91505092915050565b600081519050919050565b600082825260208201905092915050565b6000819050602082019050919050565b610356816101b3565b82525050565b600081519050919050565b600082825260208201905092915050565b60005b8381101561039657808201518184015260208101905061037b565b838111156103a5576000848401525b50505050565b6000601f19601f8301169050919050565b60006103c78261035c565b6103d18185610367565b93506103e1818560208601610378565b6103ea816103ab565b840191505092915050565b600060608301600083015161040d600086018261034d565b506020830151610420602086018261034d565b506040830151848203604086015261043882826103bc565b9150508091505092915050565b600061045183836103f5565b905092915050565b6000602082019050919050565b600061047182610321565b61047b818561032c565b93508360208202850161048d8561033d565b8060005b858110156104c957848403895281516104aa8582610445565b94506104b583610459565b925060208a01995050600181019050610491565b50829750879550505050505092915050565b600060208201905081810360008301526104f58184610466565b905092915050565b600082825260208201905092915050565b82818337600083830152505050565b600061052983856104fd565b935061053683858461050e565b61053f836103ab565b840190509392505050565b6000602082019050818103600083015261056581848661051d565b90509392505050565b7f4e487b7100000000000000000000000000000000000000000000000000000000600052604160045260246000fd5b6105a6826103ab565b810181811067ffffffffffffffff821117156105c5576105c461056e565b5b80604052505050565b60006105d861017f565b90506105e4828261059d565b919050565b600067ffffffffffffffff8211156106045761060361056e565b5b602082029050602081019050919050565b600080fd5b600080fd5b60008151905061062e816102c8565b92915050565b600080fd5b600067ffffffffffffffff8211156106545761065361056e565b5b61065d826103ab565b9050602081019050919050565b600061067d61067884610639565b6105ce565b90508281526020810184848401111561069957610698610634565b5b6106a4848285610378565b509392505050565b600082601f8301126106c1576106c0610203565b5b81516106d184826020860161066a565b91505092915050565b6000606082840312156106f0576106ef610615565b5b6106fa60606105ce565b9050600061070a8482850161061f565b600083015250602061071e8482850161061f565b602083015250604082015167ffffffffffffffff8111156107425761074161061a565b5b61074e848285016106ac565b60408301525092915050565b600061076d610768846105e9565b6105ce565b905080838252602082019050602084028301858111156107905761078f61020d565b5b835b818110156107d757805167ffffffffffffffff8111156107b5576107b4610203565b5b8086016107c289826106da565b85526020850194505050602081019050610792565b5050509392505050565b600082601f8301126107f6576107f5610203565b5b815161080684826020860161075a565b91505092915050565b60006020828403121561082557610824610189565b5b600082015167ffffffffffffffff8111156108435761084261018e565b5b61084f848285016107e1565b9150509291505056fea26469706673582212202ede63cf798cf6d82d65c51c658a854660c67dc36ce3b651ceb3a253b27d4f9a64736f6c634300080e0033",
  "immutableReferences": {},
  "source": "//SPDX-License-Identifier: UNLICENSED\r\n\r\npragma solidity >=0.7.0 <0.9.0;\r\n\r\nlibrary MyLibrary {\r\n    struct Doctor {\r\n        address doctorAddress;\r\n        string name;\r\n    }\r\n\r\n    struct Patient{\r\n        address patientAddress;\r\n        string name;\r\n    }\r\n\r\n    struct MedicalInstitute{\r\n        address instituteAddress;\r\n        string name;\r\n    }\r\n\r\n    struct MedInstituteData{\r\n        uint256 numOfMedExams;\r\n        uint256 numOfPatientsSharingData;\r\n    }\r\n\r\n    struct MedicalExamination {\r\n        address doctorAddress;\r\n        address patientAddress;\r\n        string data;\r\n    }\r\n}\r\n\r\ninterface IPatientX {\r\n    function getMedicalExaminationsShareable() payable external returns (MyLibrary.MedicalExamination[] memory);\r\n\r\n    function enlistMedicalInstitute(string calldata _name) external;\r\n}\r\n\r\ncontract InstitutesInteraction {\r\n    function enlistMedicalInstitute(IPatientX _address, string calldata _name) external {\r\n        _address.enlistMedicalInstitute(_name);\r\n    }\r\n\r\n    function getMedicalExaminationsShareable(address _address) external payable returns(MyLibrary.MedicalExamination[] memory) {\r\n        IPatientX patientXContract = IPatientX(_address);\r\n        return patientXContract.getMedicalExaminationsShareable{value: msg.value}();\r\n    }\r\n}",
  "sourcePath": "C:\\Users\\Martin\\Documents\\asd\\server\\contracts\\InstitutesInteraction.sol",
  "compiler": {
    "name": "solc",
    "version": "0.8.14+commit.80d49f37.Emscripten.clang"
  },
  "schemaVersion": "3.4.7",
  "updatedAt": "2022-06-12T21:04:37.314Z",
  "networkType": "ethereum",
  "devdoc": {
    "kind": "dev",
    "methods": {},
    "version": 1
  },
  "userdoc": {
    "kind": "user",
    "methods": {},
    "version": 1
  }
}