{
  "contractName": "PatientX",
  "abi": [
    {
      "inputs": [],
      "stateMutability": "nonpayable",
      "type": "constructor"
    },
    {
      "anonymous": false,
      "inputs": [
        {
          "indexed": false,
          "internalType": "string",
          "name": "func",
          "type": "string"
        },
        {
          "indexed": false,
          "internalType": "address",
          "name": "sender",
          "type": "address"
        },
        {
          "indexed": false,
          "internalType": "uint256",
          "name": "value",
          "type": "uint256"
        },
        {
          "indexed": false,
          "internalType": "bytes",
          "name": "data",
          "type": "bytes"
        }
      ],
      "name": "Log",
      "type": "event"
    },
    {
      "anonymous": false,
      "inputs": [
        {
          "indexed": true,
          "internalType": "address",
          "name": "oldOwner",
          "type": "address"
        },
        {
          "indexed": true,
          "internalType": "address",
          "name": "newOwner",
          "type": "address"
        }
      ],
      "name": "OwnerSet",
      "type": "event"
    },
    {
      "stateMutability": "payable",
      "type": "fallback",
      "payable": true
    },
    {
      "inputs": [
        {
          "internalType": "address",
          "name": "",
          "type": "address"
        }
      ],
      "name": "allInstituteDataByAddress",
      "outputs": [
        {
          "internalType": "uint256",
          "name": "numOfMedExams",
          "type": "uint256"
        },
        {
          "internalType": "uint256",
          "name": "numOfPatientsSharingData",
          "type": "uint256"
        }
      ],
      "stateMutability": "view",
      "type": "function",
      "constant": true
    },
    {
      "inputs": [],
      "name": "owner",
      "outputs": [
        {
          "internalType": "address",
          "name": "",
          "type": "address"
        }
      ],
      "stateMutability": "view",
      "type": "function",
      "constant": true
    },
    {
      "inputs": [
        {
          "internalType": "address",
          "name": "",
          "type": "address"
        }
      ],
      "name": "suchDoctorExists",
      "outputs": [
        {
          "internalType": "bool",
          "name": "",
          "type": "bool"
        }
      ],
      "stateMutability": "view",
      "type": "function",
      "constant": true
    },
    {
      "inputs": [
        {
          "internalType": "address",
          "name": "",
          "type": "address"
        }
      ],
      "name": "suchMedicalInstituteExists",
      "outputs": [
        {
          "internalType": "bool",
          "name": "",
          "type": "bool"
        }
      ],
      "stateMutability": "view",
      "type": "function",
      "constant": true
    },
    {
      "inputs": [
        {
          "internalType": "address",
          "name": "",
          "type": "address"
        }
      ],
      "name": "suchPatientExists",
      "outputs": [
        {
          "internalType": "bool",
          "name": "",
          "type": "bool"
        }
      ],
      "stateMutability": "view",
      "type": "function",
      "constant": true
    },
    {
      "stateMutability": "payable",
      "type": "receive",
      "payable": true
    },
    {
      "inputs": [
        {
          "internalType": "address",
          "name": "_newOwner",
          "type": "address"
        }
      ],
      "name": "changeOwner",
      "outputs": [],
      "stateMutability": "nonpayable",
      "type": "function"
    },
    {
      "inputs": [
        {
          "internalType": "string",
          "name": "_name",
          "type": "string"
        }
      ],
      "name": "enlistPatient",
      "outputs": [],
      "stateMutability": "nonpayable",
      "type": "function"
    },
    {
      "inputs": [
        {
          "internalType": "string",
          "name": "_name",
          "type": "string"
        }
      ],
      "name": "enlistDoctor",
      "outputs": [],
      "stateMutability": "nonpayable",
      "type": "function"
    },
    {
      "inputs": [
        {
          "internalType": "string",
          "name": "_name",
          "type": "string"
        }
      ],
      "name": "enlistMedicalInstitute",
      "outputs": [],
      "stateMutability": "nonpayable",
      "type": "function"
    },
    {
      "inputs": [
        {
          "internalType": "address",
          "name": "_doctorAddress",
          "type": "address"
        },
        {
          "internalType": "address",
          "name": "_patientAddress",
          "type": "address"
        },
        {
          "internalType": "string",
          "name": "_data",
          "type": "string"
        }
      ],
      "name": "addNewMedicalExaminationOfPatientByDoctor",
      "outputs": [],
      "stateMutability": "nonpayable",
      "type": "function"
    },
    {
      "inputs": [
        {
          "internalType": "address",
          "name": "_doctorAddress",
          "type": "address"
        }
      ],
      "name": "getAllPatientsOfDoctor",
      "outputs": [
        {
          "components": [
            {
              "internalType": "address",
              "name": "patientAddress",
              "type": "address"
            },
            {
              "internalType": "string",
              "name": "name",
              "type": "string"
            }
          ],
          "internalType": "struct MyLibrary.Patient[]",
          "name": "",
          "type": "tuple[]"
        }
      ],
      "stateMutability": "view",
      "type": "function",
      "constant": true
    },
    {
      "inputs": [
        {
          "internalType": "address",
          "name": "_patientAddress",
          "type": "address"
        },
        {
          "internalType": "address",
          "name": "_doctorAddress",
          "type": "address"
        }
      ],
      "name": "addDoctorToPatient",
      "outputs": [],
      "stateMutability": "nonpayable",
      "type": "function"
    },
    {
      "inputs": [
        {
          "internalType": "address",
          "name": "_patientAddress",
          "type": "address"
        },
        {
          "internalType": "address",
          "name": "_medicalInstituteAddress",
          "type": "address"
        }
      ],
      "name": "addInstituteToPatient",
      "outputs": [],
      "stateMutability": "nonpayable",
      "type": "function"
    },
    {
      "inputs": [
        {
          "internalType": "address",
          "name": "_patientAddress",
          "type": "address"
        },
        {
          "internalType": "address",
          "name": "_medicalInstituteAddress",
          "type": "address"
        }
      ],
      "name": "removeInstituteFromPatient",
      "outputs": [],
      "stateMutability": "nonpayable",
      "type": "function"
    },
    {
      "inputs": [
        {
          "internalType": "address",
          "name": "_patientAddress",
          "type": "address"
        },
        {
          "internalType": "address",
          "name": "_doctorAddress",
          "type": "address"
        }
      ],
      "name": "removeDoctorFromPatient",
      "outputs": [],
      "stateMutability": "nonpayable",
      "type": "function"
    },
    {
      "inputs": [
        {
          "internalType": "address",
          "name": "_patientAddress",
          "type": "address"
        }
      ],
      "name": "getAllDoctorsOfPatient",
      "outputs": [
        {
          "components": [
            {
              "internalType": "address",
              "name": "doctorAddress",
              "type": "address"
            },
            {
              "internalType": "string",
              "name": "name",
              "type": "string"
            }
          ],
          "internalType": "struct MyLibrary.Doctor[]",
          "name": "",
          "type": "tuple[]"
        }
      ],
      "stateMutability": "view",
      "type": "function",
      "constant": true
    },
    {
      "inputs": [
        {
          "internalType": "address",
          "name": "_patientAddress",
          "type": "address"
        }
      ],
      "name": "getAllInstitutesOfPatient",
      "outputs": [
        {
          "components": [
            {
              "internalType": "address",
              "name": "instituteAddress",
              "type": "address"
            },
            {
              "internalType": "string",
              "name": "name",
              "type": "string"
            }
          ],
          "internalType": "struct MyLibrary.MedicalInstitute[]",
          "name": "",
          "type": "tuple[]"
        }
      ],
      "stateMutability": "view",
      "type": "function",
      "constant": true
    },
    {
      "inputs": [],
      "name": "getMedicalExaminationsShareable",
      "outputs": [
        {
          "components": [
            {
              "internalType": "address",
              "name": "doctorAddress",
              "type": "address"
            },
            {
              "internalType": "address",
              "name": "patientAddress",
              "type": "address"
            },
            {
              "internalType": "string",
              "name": "data",
              "type": "string"
            }
          ],
          "internalType": "struct MyLibrary.MedicalExamination[]",
          "name": "",
          "type": "tuple[]"
        }
      ],
      "stateMutability": "payable",
      "type": "function",
      "payable": true
    }
  ],
  "bytecode": "0x608060405234801561001057600080fd5b50336000806101000a81548173ffffffffffffffffffffffffffffffffffffffff021916908373ffffffffffffffffffffffffffffffffffffffff16021790555060008054906101000a900473ffffffffffffffffffffffffffffffffffffffff1673ffffffffffffffffffffffffffffffffffffffff16600073ffffffffffffffffffffffffffffffffffffffff167f342827c97908e5e2f71151c08502a66d44b6f758e3ac2f1de95f02eb95f0a73560405160405180910390a361592280620000dc6000396000f3fe60806040526004361061010d5760003560e01c80638da5cb5b11610095578063accf4e9711610064578063accf4e97146104b7578063bf392c07146104e0578063e04270621461051d578063f29ec1b514610546578063f55f652814610584576101b4565b80638da5cb5b146104115780639fdc0eec1461043c578063a6f9dae114610465578063ab65e6691461048e576101b4565b806342aedbb0116100dc57806342aedbb01461031c5780635b006a4c146103455780635e076e1114610382578063628ac3b0146103ab5780637adfb39c146103e8576101b4565b80631277762b1461025b5780631de3af0a146102795780632f229509146102b65780633d66b22f146102df576101b4565b366101b45760008054906101000a900473ffffffffffffffffffffffffffffffffffffffff1673ffffffffffffffffffffffffffffffffffffffff166108fc349081150290604051600060405180830381858888f19350505050158015610178573d6000803e3d6000fd5b507ff7f75251dee7d7fc22deac3247729ebe7c86541f35930bf10c2a4207479a3b6c33346040516101aa9291906145dc565b60405180910390a1005b60008054906101000a900473ffffffffffffffffffffffffffffffffffffffff1673ffffffffffffffffffffffffffffffffffffffff166108fc349081150290604051600060405180830381858888f1935050505015801561021a573d6000803e3d6000fd5b507ff7f75251dee7d7fc22deac3247729ebe7c86541f35930bf10c2a4207479a3b6c333460003660405161025194939291906146c4565b60405180910390a1005b6102636105c1565b60405161027091906148c0565b60405180910390f35b34801561028557600080fd5b506102a0600480360381019061029b9190614918565b610d5b565b6040516102ad9190614960565b60405180910390f35b3480156102c257600080fd5b506102dd60048036038101906102d891906149e0565b610d7b565b005b3480156102eb57600080fd5b5061030660048036038101906103019190614918565b610fbc565b6040516103139190614960565b60405180910390f35b34801561032857600080fd5b50610343600480360381019061033e91906149e0565b610fdc565b005b34801561035157600080fd5b5061036c60048036038101906103679190614918565b611265565b6040516103799190614b2c565b60405180910390f35b34801561038e57600080fd5b506103a960048036038101906103a49190614b4e565b611529565b005b3480156103b757600080fd5b506103d260048036038101906103cd9190614918565b611cf5565b6040516103df9190614960565b60405180910390f35b3480156103f457600080fd5b5061040f600480360381019061040a91906149e0565b611d15565b005b34801561041d57600080fd5b50610426611fb9565b6040516104339190614b8e565b60405180910390f35b34801561044857600080fd5b50610463600480360381019061045e9190614b4e565b611fdd565b005b34801561047157600080fd5b5061048c60048036038101906104879190614918565b6127f4565b005b34801561049a57600080fd5b506104b560048036038101906104b09190614b4e565b61293f565b005b3480156104c357600080fd5b506104de60048036038101906104d99190614ba9565b613005565b005b3480156104ec57600080fd5b5061050760048036038101906105029190614918565b613405565b6040516105149190614d1c565b60405180910390f35b34801561052957600080fd5b50610544600480360381019061053f9190614b4e565b6136c9565b005b34801561055257600080fd5b5061056d60048036038101906105689190614918565b613df2565b60405161057b929190614d3e565b60405180910390f35b34801561059057600080fd5b506105ab60048036038101906105a69190614918565b613e16565b6040516105b89190614e66565b60405180910390f35b6060600860003273ffffffffffffffffffffffffffffffffffffffff1673ffffffffffffffffffffffffffffffffffffffff16815260200190815260200160002060000160009054906101000a900473ffffffffffffffffffffffffffffffffffffffff1673ffffffffffffffffffffffffffffffffffffffff163273ffffffffffffffffffffffffffffffffffffffff1614610693576040517f08c379a000000000000000000000000000000000000000000000000000000000815260040161068a90614ed4565b60405180910390fd5b6000600960003273ffffffffffffffffffffffffffffffffffffffff1673ffffffffffffffffffffffffffffffffffffffff1681526020019081526020016000206000015467ffffffffffffffff8111156106f1576106f0614ef4565b5b60405190808252806020026020018201604052801561072a57816020015b610717614331565b81526020019060019003908161070f5790505b509050600080600960003273ffffffffffffffffffffffffffffffffffffffff1673ffffffffffffffffffffffffffffffffffffffff1681526020019081526020016000206001015467ffffffffffffffff81111561078c5761078b614ef4565b5b6040519080825280602002602001820160405280156107ba5781602001602082028036833780820191505090505b5090506000805b600180549050811015610c0f573273ffffffffffffffffffffffffffffffffffffffff1660056000600184815481106107fd576107fc614f23565b5b9060005260206000200160009054906101000a900473ffffffffffffffffffffffffffffffffffffffff1673ffffffffffffffffffffffffffffffffffffffff1673ffffffffffffffffffffffffffffffffffffffff16815260200190815260200160002060003273ffffffffffffffffffffffffffffffffffffffff1673ffffffffffffffffffffffffffffffffffffffff16815260200190815260200160002060000160009054906101000a900473ffffffffffffffffffffffffffffffffffffffff1673ffffffffffffffffffffffffffffffffffffffff1603610bfc57600181815481106108f2576108f1614f23565b5b9060005260206000200160009054906101000a900473ffffffffffffffffffffffffffffffffffffffff168383815181106109305761092f614f23565b5b602002602001019073ffffffffffffffffffffffffffffffffffffffff16908173ffffffffffffffffffffffffffffffffffffffff1681525050818061097590614f81565b9250506000600360006001848154811061099257610991614f23565b5b9060005260206000200160009054906101000a900473ffffffffffffffffffffffffffffffffffffffff1673ffffffffffffffffffffffffffffffffffffffff1673ffffffffffffffffffffffffffffffffffffffff168152602001908152602001600020805480602002602001604051908101604052809291908181526020016000905b82821015610b8757838290600052602060002090600302016040518060600160405290816000820160009054906101000a900473ffffffffffffffffffffffffffffffffffffffff1673ffffffffffffffffffffffffffffffffffffffff1673ffffffffffffffffffffffffffffffffffffffff1681526020016001820160009054906101000a900473ffffffffffffffffffffffffffffffffffffffff1673ffffffffffffffffffffffffffffffffffffffff1673ffffffffffffffffffffffffffffffffffffffff168152602001600282018054610af690614ff8565b80601f0160208091040260200160405190810160405280929190818152602001828054610b2290614ff8565b8015610b6f5780601f10610b4457610100808354040283529160200191610b6f565b820191906000526020600020905b815481529060010190602001808311610b5257829003601f168201915b50505050508152505081526020019060010190610a17565b50505050905060005b8151811015610bf9576000828281518110610bae57610bad614f23565b5b6020026020010151905080888881518110610bcc57610bcb614f23565b5b60200260200101819052508680610be290614f81565b975050508080610bf190614f81565b915050610b90565b50505b8080610c0790614f81565b9150506107c1565b50600060018351610c209190615029565b662386f26fc10000610c3291906150ae565b905060005b8351811015610cb457838181518110610c5357610c52614f23565b5b602002602001015173ffffffffffffffffffffffffffffffffffffffff166108fc839081150290604051600060405180830381858888f19350505050158015610ca0573d6000803e3d6000fd5b508080610cac90614f81565b915050610c37565b5060008060009054906101000a900473ffffffffffffffffffffffffffffffffffffffff1673ffffffffffffffffffffffffffffffffffffffff166108fc839081150290604051600060405180830381858888f19350505050905080610d4f576040517f08c379a0000000000000000000000000000000000000000000000000000000008152600401610d469061512b565b60405180910390fd5b85965050505050505090565b600d6020528060005260406000206000915054906101000a900460ff1681565b3373ffffffffffffffffffffffffffffffffffffffff16600760003373ffffffffffffffffffffffffffffffffffffffff1673ffffffffffffffffffffffffffffffffffffffff16815260200190815260200160002060000160009054906101000a900473ffffffffffffffffffffffffffffffffffffffff1673ffffffffffffffffffffffffffffffffffffffff1603610e4b576040517f08c379a0000000000000000000000000000000000000000000000000000000008152600401610e42906151bd565b60405180910390fd5b60405180604001604052803373ffffffffffffffffffffffffffffffffffffffff16815260200183838080601f016020809104026020016040519081016040528093929190818152602001838380828437600081840152601f19601f82011690508083019250505050505050815250600760003373ffffffffffffffffffffffffffffffffffffffff1673ffffffffffffffffffffffffffffffffffffffff16815260200190815260200160002060008201518160000160006101000a81548173ffffffffffffffffffffffffffffffffffffffff021916908373ffffffffffffffffffffffffffffffffffffffff1602179055506020820151816001019080519060200190610f5c92919061437e565b509050506001600e60003373ffffffffffffffffffffffffffffffffffffffff1673ffffffffffffffffffffffffffffffffffffffff16815260200190815260200160002060006101000a81548160ff0219169083151502179055505050565b600f6020528060005260406000206000915054906101000a900460ff1681565b3273ffffffffffffffffffffffffffffffffffffffff16600860003273ffffffffffffffffffffffffffffffffffffffff1673ffffffffffffffffffffffffffffffffffffffff16815260200190815260200160002060000160009054906101000a900473ffffffffffffffffffffffffffffffffffffffff1673ffffffffffffffffffffffffffffffffffffffff16036110ac576040517f08c379a00000000000000000000000000000000000000000000000000000000081526004016110a39061524f565b60405180910390fd5b60405180604001604052803273ffffffffffffffffffffffffffffffffffffffff16815260200183838080601f016020809104026020016040519081016040528093929190818152602001838380828437600081840152601f19601f82011690508083019250505050505050815250600860003273ffffffffffffffffffffffffffffffffffffffff1673ffffffffffffffffffffffffffffffffffffffff16815260200190815260200160002060008201518160000160006101000a81548173ffffffffffffffffffffffffffffffffffffffff021916908373ffffffffffffffffffffffffffffffffffffffff16021790555060208201518160010190805190602001906111bd92919061437e565b509050506000600960003273ffffffffffffffffffffffffffffffffffffffff1673ffffffffffffffffffffffffffffffffffffffff168152602001908152602001600020600101819055506001600f60003273ffffffffffffffffffffffffffffffffffffffff1673ffffffffffffffffffffffffffffffffffffffff16815260200190815260200160002060006101000a81548160ff0219169083151502179055505050565b60603373ffffffffffffffffffffffffffffffffffffffff168273ffffffffffffffffffffffffffffffffffffffff16146112d5576040517f08c379a00000000000000000000000000000000000000000000000000000000081526004016112cc906152bb565b60405180910390fd5b8173ffffffffffffffffffffffffffffffffffffffff16600760008473ffffffffffffffffffffffffffffffffffffffff1673ffffffffffffffffffffffffffffffffffffffff16815260200190815260200160002060000160009054906101000a900473ffffffffffffffffffffffffffffffffffffffff1673ffffffffffffffffffffffffffffffffffffffff16146113a5576040517f08c379a000000000000000000000000000000000000000000000000000000000815260040161139c90615327565b60405180910390fd5b600b60008373ffffffffffffffffffffffffffffffffffffffff1673ffffffffffffffffffffffffffffffffffffffff168152602001908152602001600020805480602002602001604051908101604052809291908181526020016000905b8282101561151e57838290600052602060002090600202016040518060400160405290816000820160009054906101000a900473ffffffffffffffffffffffffffffffffffffffff1673ffffffffffffffffffffffffffffffffffffffff1673ffffffffffffffffffffffffffffffffffffffff16815260200160018201805461148d90614ff8565b80601f01602080910402602001604051908101604052809291908181526020018280546114b990614ff8565b80156115065780601f106114db57610100808354040283529160200191611506565b820191906000526020600020905b8154815290600101906020018083116114e957829003601f168201915b50505050508152505081526020019060010190611404565b505050509050919050565b813373ffffffffffffffffffffffffffffffffffffffff168173ffffffffffffffffffffffffffffffffffffffff1614611598576040517f08c379a000000000000000000000000000000000000000000000000000000000815260040161158f90615393565b60405180910390fd5b8273ffffffffffffffffffffffffffffffffffffffff16600260008573ffffffffffffffffffffffffffffffffffffffff1673ffffffffffffffffffffffffffffffffffffffff16815260200190815260200160002060000160009054906101000a900473ffffffffffffffffffffffffffffffffffffffff1673ffffffffffffffffffffffffffffffffffffffff1614611668576040517f08c379a000000000000000000000000000000000000000000000000000000000815260040161165f906153ff565b60405180910390fd5b8173ffffffffffffffffffffffffffffffffffffffff16600860008473ffffffffffffffffffffffffffffffffffffffff1673ffffffffffffffffffffffffffffffffffffffff16815260200190815260200160002060000160009054906101000a900473ffffffffffffffffffffffffffffffffffffffff1673ffffffffffffffffffffffffffffffffffffffff1614611738576040517f08c379a000000000000000000000000000000000000000000000000000000000815260040161172f9061546b565b60405180910390fd5b8173ffffffffffffffffffffffffffffffffffffffff16600560008573ffffffffffffffffffffffffffffffffffffffff1673ffffffffffffffffffffffffffffffffffffffff16815260200190815260200160002060008473ffffffffffffffffffffffffffffffffffffffff1673ffffffffffffffffffffffffffffffffffffffff16815260200190815260200160002060000160009054906101000a900473ffffffffffffffffffffffffffffffffffffffff1673ffffffffffffffffffffffffffffffffffffffff1614611845576040517f08c379a000000000000000000000000000000000000000000000000000000000815260040161183c906154fd565b60405180910390fd5b6000600660008573ffffffffffffffffffffffffffffffffffffffff1673ffffffffffffffffffffffffffffffffffffffff168152602001908152602001600020905060005b8180549050811015611a0e578373ffffffffffffffffffffffffffffffffffffffff168282815481106118c1576118c0614f23565b5b9060005260206000200160009054906101000a900473ffffffffffffffffffffffffffffffffffffffff1673ffffffffffffffffffffffffffffffffffffffff16036119fb578160018380549050611919919061551d565b8154811061192a57611929614f23565b5b9060005260206000200160009054906101000a900473ffffffffffffffffffffffffffffffffffffffff1682828154811061196857611967614f23565b5b9060005260206000200160006101000a81548173ffffffffffffffffffffffffffffffffffffffff021916908373ffffffffffffffffffffffffffffffffffffffff160217905550818054806119c1576119c0615551565b5b6001900381819060005260206000200160006101000a81549073ffffffffffffffffffffffffffffffffffffffff02191690559055611a0e565b8080611a0690614f81565b91505061188b565b506000600c60008673ffffffffffffffffffffffffffffffffffffffff1673ffffffffffffffffffffffffffffffffffffffff168152602001908152602001600020905060005b8180549050811015611c2d578473ffffffffffffffffffffffffffffffffffffffff16828281548110611a8b57611a8a614f23565b5b906000526020600020906002020160000160009054906101000a900473ffffffffffffffffffffffffffffffffffffffff1673ffffffffffffffffffffffffffffffffffffffff1603611c1a578160018380549050611aea919061551d565b81548110611afb57611afa614f23565b5b9060005260206000209060020201828281548110611b1c57611b1b614f23565b5b90600052602060002090600202016000820160009054906101000a900473ffffffffffffffffffffffffffffffffffffffff168160000160006101000a81548173ffffffffffffffffffffffffffffffffffffffff021916908373ffffffffffffffffffffffffffffffffffffffff1602179055506001820181600101908054611ba590614ff8565b611bb0929190614404565b5090505081805480611bc557611bc4615551565b5b6001900381819060005260206000209060020201600080820160006101000a81549073ffffffffffffffffffffffffffffffffffffffff0219169055600182016000611c119190614491565b50509055611c2d565b8080611c2590614f81565b915050611a55565b50600560008673ffffffffffffffffffffffffffffffffffffffff1673ffffffffffffffffffffffffffffffffffffffff16815260200190815260200160002060008573ffffffffffffffffffffffffffffffffffffffff1673ffffffffffffffffffffffffffffffffffffffff168152602001908152602001600020600080820160006101000a81549073ffffffffffffffffffffffffffffffffffffffff0219169055600182016000611ce29190614491565b5050611cee85856140da565b5050505050565b600e6020528060005260406000206000915054906101000a900460ff1681565b3373ffffffffffffffffffffffffffffffffffffffff16600260003373ffffffffffffffffffffffffffffffffffffffff1673ffffffffffffffffffffffffffffffffffffffff16815260200190815260200160002060000160009054906101000a900473ffffffffffffffffffffffffffffffffffffffff1673ffffffffffffffffffffffffffffffffffffffff1603611de5576040517f08c379a0000000000000000000000000000000000000000000000000000000008152600401611ddc906155f2565b60405180910390fd5b60405180604001604052803373ffffffffffffffffffffffffffffffffffffffff16815260200183838080601f016020809104026020016040519081016040528093929190818152602001838380828437600081840152601f19601f82011690508083019250505050505050815250600260003373ffffffffffffffffffffffffffffffffffffffff1673ffffffffffffffffffffffffffffffffffffffff16815260200190815260200160002060008201518160000160006101000a81548173ffffffffffffffffffffffffffffffffffffffff021916908373ffffffffffffffffffffffffffffffffffffffff1602179055506020820151816001019080519060200190611ef692919061437e565b509050506001339080600181540180825580915050600190039060005260206000200160009091909190916101000a81548173ffffffffffffffffffffffffffffffffffffffff021916908373ffffffffffffffffffffffffffffffffffffffff1602179055506001600d60003373ffffffffffffffffffffffffffffffffffffffff1673ffffffffffffffffffffffffffffffffffffffff16815260200190815260200160002060006101000a81548160ff0219169083151502179055505050565b60008054906101000a900473ffffffffffffffffffffffffffffffffffffffff1681565b813373ffffffffffffffffffffffffffffffffffffffff168173ffffffffffffffffffffffffffffffffffffffff161461204c576040517f08c379a000000000000000000000000000000000000000000000000000000000815260040161204390615393565b60405180910390fd5b8273ffffffffffffffffffffffffffffffffffffffff16600260008573ffffffffffffffffffffffffffffffffffffffff1673ffffffffffffffffffffffffffffffffffffffff16815260200190815260200160002060000160009054906101000a900473ffffffffffffffffffffffffffffffffffffffff1673ffffffffffffffffffffffffffffffffffffffff161461211c576040517f08c379a0000000000000000000000000000000000000000000000000000000008152600401612113906153ff565b60405180910390fd5b8173ffffffffffffffffffffffffffffffffffffffff16600760008473ffffffffffffffffffffffffffffffffffffffff1673ffffffffffffffffffffffffffffffffffffffff16815260200190815260200160002060000160009054906101000a900473ffffffffffffffffffffffffffffffffffffffff1673ffffffffffffffffffffffffffffffffffffffff16146121ec576040517f08c379a00000000000000000000000000000000000000000000000000000000081526004016121e390615327565b60405180910390fd5b8173ffffffffffffffffffffffffffffffffffffffff16600460008573ffffffffffffffffffffffffffffffffffffffff1673ffffffffffffffffffffffffffffffffffffffff16815260200190815260200160002060008473ffffffffffffffffffffffffffffffffffffffff1673ffffffffffffffffffffffffffffffffffffffff16815260200190815260200160002060000160009054906101000a900473ffffffffffffffffffffffffffffffffffffffff1673ffffffffffffffffffffffffffffffffffffffff16146122f9576040517f08c379a00000000000000000000000000000000000000000000000000000000081526004016122f090615684565b60405180910390fd5b6000600a60008573ffffffffffffffffffffffffffffffffffffffff1673ffffffffffffffffffffffffffffffffffffffff168152602001908152602001600020905060005b8180549050811015612517578373ffffffffffffffffffffffffffffffffffffffff1682828154811061237557612374614f23565b5b906000526020600020906002020160000160009054906101000a900473ffffffffffffffffffffffffffffffffffffffff1673ffffffffffffffffffffffffffffffffffffffff16036125045781600183805490506123d4919061551d565b815481106123e5576123e4614f23565b5b906000526020600020906002020182828154811061240657612405614f23565b5b90600052602060002090600202016000820160009054906101000a900473ffffffffffffffffffffffffffffffffffffffff168160000160006101000a81548173ffffffffffffffffffffffffffffffffffffffff021916908373ffffffffffffffffffffffffffffffffffffffff160217905550600182018160010190805461248f90614ff8565b61249a929190614404565b50905050818054806124af576124ae615551565b5b6001900381819060005260206000209060020201600080820160006101000a81549073ffffffffffffffffffffffffffffffffffffffff02191690556001820160006124fb9190614491565b50509055612517565b808061250f90614f81565b91505061233f565b506000600b60008573ffffffffffffffffffffffffffffffffffffffff1673ffffffffffffffffffffffffffffffffffffffff168152602001908152602001600020905060005b8180549050811015612736578573ffffffffffffffffffffffffffffffffffffffff1682828154811061259457612593614f23565b5b906000526020600020906002020160000160009054906101000a900473ffffffffffffffffffffffffffffffffffffffff1673ffffffffffffffffffffffffffffffffffffffff16036127235781600183805490506125f3919061551d565b8154811061260457612603614f23565b5b906000526020600020906002020182828154811061262557612624614f23565b5b90600052602060002090600202016000820160009054906101000a900473ffffffffffffffffffffffffffffffffffffffff168160000160006101000a81548173ffffffffffffffffffffffffffffffffffffffff021916908373ffffffffffffffffffffffffffffffffffffffff16021790555060018201816001019080546126ae90614ff8565b6126b9929190614404565b50905050818054806126ce576126cd615551565b5b6001900381819060005260206000209060020201600080820160006101000a81549073ffffffffffffffffffffffffffffffffffffffff021916905560018201600061271a9190614491565b50509055612736565b808061272e90614f81565b91505061255e565b50600460008673ffffffffffffffffffffffffffffffffffffffff1673ffffffffffffffffffffffffffffffffffffffff16815260200190815260200160002060008573ffffffffffffffffffffffffffffffffffffffff1673ffffffffffffffffffffffffffffffffffffffff168152602001908152602001600020600080820160006101000a81549073ffffffffffffffffffffffffffffffffffffffff02191690556001820160006127eb9190614491565b50505050505050565b60008054906101000a900473ffffffffffffffffffffffffffffffffffffffff1673ffffffffffffffffffffffffffffffffffffffff163373ffffffffffffffffffffffffffffffffffffffff1614612882576040517f08c379a000000000000000000000000000000000000000000000000000000000815260040161287990615716565b60405180910390fd5b8073ffffffffffffffffffffffffffffffffffffffff1660008054906101000a900473ffffffffffffffffffffffffffffffffffffffff1673ffffffffffffffffffffffffffffffffffffffff167f342827c97908e5e2f71151c08502a66d44b6f758e3ac2f1de95f02eb95f0a73560405160405180910390a3806000806101000a81548173ffffffffffffffffffffffffffffffffffffffff021916908373ffffffffffffffffffffffffffffffffffffffff16021790555050565b813373ffffffffffffffffffffffffffffffffffffffff168173ffffffffffffffffffffffffffffffffffffffff16146129ae576040517f08c379a00000000000000000000000000000000000000000000000000000000081526004016129a590615393565b60405180910390fd5b8273ffffffffffffffffffffffffffffffffffffffff16600260008573ffffffffffffffffffffffffffffffffffffffff1673ffffffffffffffffffffffffffffffffffffffff16815260200190815260200160002060000160009054906101000a900473ffffffffffffffffffffffffffffffffffffffff1673ffffffffffffffffffffffffffffffffffffffff1614612a7e576040517f08c379a0000000000000000000000000000000000000000000000000000000008152600401612a75906153ff565b60405180910390fd5b8173ffffffffffffffffffffffffffffffffffffffff16600760008473ffffffffffffffffffffffffffffffffffffffff1673ffffffffffffffffffffffffffffffffffffffff16815260200190815260200160002060000160009054906101000a900473ffffffffffffffffffffffffffffffffffffffff1673ffffffffffffffffffffffffffffffffffffffff1614612b4e576040517f08c379a0000000000000000000000000000000000000000000000000000000008152600401612b4590615327565b60405180910390fd5b8173ffffffffffffffffffffffffffffffffffffffff16600460008573ffffffffffffffffffffffffffffffffffffffff1673ffffffffffffffffffffffffffffffffffffffff16815260200190815260200160002060008473ffffffffffffffffffffffffffffffffffffffff1673ffffffffffffffffffffffffffffffffffffffff16815260200190815260200160002060000160009054906101000a900473ffffffffffffffffffffffffffffffffffffffff1673ffffffffffffffffffffffffffffffffffffffff1603612c5b576040517f08c379a0000000000000000000000000000000000000000000000000000000008152600401612c52906157a8565b60405180910390fd5b600760008373ffffffffffffffffffffffffffffffffffffffff1673ffffffffffffffffffffffffffffffffffffffff168152602001908152602001600020600460008573ffffffffffffffffffffffffffffffffffffffff1673ffffffffffffffffffffffffffffffffffffffff16815260200190815260200160002060008473ffffffffffffffffffffffffffffffffffffffff1673ffffffffffffffffffffffffffffffffffffffff1681526020019081526020016000206000820160009054906101000a900473ffffffffffffffffffffffffffffffffffffffff168160000160006101000a81548173ffffffffffffffffffffffffffffffffffffffff021916908373ffffffffffffffffffffffffffffffffffffffff1602179055506001820181600101908054612d9190614ff8565b612d9c929190614404565b50905050600a60008473ffffffffffffffffffffffffffffffffffffffff1673ffffffffffffffffffffffffffffffffffffffff168152602001908152602001600020600760008473ffffffffffffffffffffffffffffffffffffffff1673ffffffffffffffffffffffffffffffffffffffff16815260200190815260200160002090806001815401808255809150506001900390600052602060002090600202016000909190919091506000820160009054906101000a900473ffffffffffffffffffffffffffffffffffffffff168160000160006101000a81548173ffffffffffffffffffffffffffffffffffffffff021916908373ffffffffffffffffffffffffffffffffffffffff1602179055506001820181600101908054612ec290614ff8565b612ecd929190614404565b505050600b60008373ffffffffffffffffffffffffffffffffffffffff1673ffffffffffffffffffffffffffffffffffffffff168152602001908152602001600020600260008573ffffffffffffffffffffffffffffffffffffffff1673ffffffffffffffffffffffffffffffffffffffff16815260200190815260200160002090806001815401808255809150506001900390600052602060002090600202016000909190919091506000820160009054906101000a900473ffffffffffffffffffffffffffffffffffffffff168160000160006101000a81548173ffffffffffffffffffffffffffffffffffffffff021916908373ffffffffffffffffffffffffffffffffffffffff1602179055506001820181600101908054612ff290614ff8565b612ffd929190614404565b505050505050565b3373ffffffffffffffffffffffffffffffffffffffff168473ffffffffffffffffffffffffffffffffffffffff1614613073576040517f08c379a000000000000000000000000000000000000000000000000000000000815260040161306a906152bb565b60405180910390fd5b8273ffffffffffffffffffffffffffffffffffffffff16600260008573ffffffffffffffffffffffffffffffffffffffff1673ffffffffffffffffffffffffffffffffffffffff16815260200190815260200160002060000160009054906101000a900473ffffffffffffffffffffffffffffffffffffffff1673ffffffffffffffffffffffffffffffffffffffff1614613143576040517f08c379a000000000000000000000000000000000000000000000000000000000815260040161313a906153ff565b60405180910390fd5b8373ffffffffffffffffffffffffffffffffffffffff16600460008573ffffffffffffffffffffffffffffffffffffffff1673ffffffffffffffffffffffffffffffffffffffff16815260200190815260200160002060008673ffffffffffffffffffffffffffffffffffffffff1673ffffffffffffffffffffffffffffffffffffffff16815260200190815260200160002060000160009054906101000a900473ffffffffffffffffffffffffffffffffffffffff1673ffffffffffffffffffffffffffffffffffffffff1614613250576040517f08c379a00000000000000000000000000000000000000000000000000000000081526004016132479061583a565b60405180910390fd5b600060405180606001604052808673ffffffffffffffffffffffffffffffffffffffff1681526020018573ffffffffffffffffffffffffffffffffffffffff16815260200184848080601f016020809104026020016040519081016040528093929190818152602001838380828437600081840152601f19601f820116905080830192505050505050508152509050600360008573ffffffffffffffffffffffffffffffffffffffff1673ffffffffffffffffffffffffffffffffffffffff16815260200190815260200160002081908060018154018082558091505060019003906000526020600020906003020160009091909190915060008201518160000160006101000a81548173ffffffffffffffffffffffffffffffffffffffff021916908373ffffffffffffffffffffffffffffffffffffffff16021790555060208201518160010160006101000a81548173ffffffffffffffffffffffffffffffffffffffff021916908373ffffffffffffffffffffffffffffffffffffffff16021790555060408201518160020190805190602001906133f292919061437e565b5050506133fe846141d3565b5050505050565b60603373ffffffffffffffffffffffffffffffffffffffff168273ffffffffffffffffffffffffffffffffffffffff1614613475576040517f08c379a000000000000000000000000000000000000000000000000000000000815260040161346c90615393565b60405180910390fd5b8173ffffffffffffffffffffffffffffffffffffffff16600260008473ffffffffffffffffffffffffffffffffffffffff1673ffffffffffffffffffffffffffffffffffffffff16815260200190815260200160002060000160009054906101000a900473ffffffffffffffffffffffffffffffffffffffff1673ffffffffffffffffffffffffffffffffffffffff1614613545576040517f08c379a000000000000000000000000000000000000000000000000000000000815260040161353c906153ff565b60405180910390fd5b600c60008373ffffffffffffffffffffffffffffffffffffffff1673ffffffffffffffffffffffffffffffffffffffff168152602001908152602001600020805480602002602001604051908101604052809291908181526020016000905b828210156136be57838290600052602060002090600202016040518060400160405290816000820160009054906101000a900473ffffffffffffffffffffffffffffffffffffffff1673ffffffffffffffffffffffffffffffffffffffff1673ffffffffffffffffffffffffffffffffffffffff16815260200160018201805461362d90614ff8565b80601f016020809104026020016040519081016040528092919081815260200182805461365990614ff8565b80156136a65780601f1061367b576101008083540402835291602001916136a6565b820191906000526020600020905b81548152906001019060200180831161368957829003601f168201915b505050505081525050815260200190600101906135a4565b505050509050919050565b813373ffffffffffffffffffffffffffffffffffffffff168173ffffffffffffffffffffffffffffffffffffffff1614613738576040517f08c379a000000000000000000000000000000000000000000000000000000000815260040161372f90615393565b60405180910390fd5b8273ffffffffffffffffffffffffffffffffffffffff16600260008573ffffffffffffffffffffffffffffffffffffffff1673ffffffffffffffffffffffffffffffffffffffff16815260200190815260200160002060000160009054906101000a900473ffffffffffffffffffffffffffffffffffffffff1673ffffffffffffffffffffffffffffffffffffffff1614613808576040517f08c379a00000000000000000000000000000000000000000000000000000000081526004016137ff906153ff565b60405180910390fd5b8173ffffffffffffffffffffffffffffffffffffffff16600860008473ffffffffffffffffffffffffffffffffffffffff1673ffffffffffffffffffffffffffffffffffffffff16815260200190815260200160002060000160009054906101000a900473ffffffffffffffffffffffffffffffffffffffff1673ffffffffffffffffffffffffffffffffffffffff16146138d8576040517f08c379a00000000000000000000000000000000000000000000000000000000081526004016138cf9061546b565b60405180910390fd5b8173ffffffffffffffffffffffffffffffffffffffff16600560008573ffffffffffffffffffffffffffffffffffffffff1673ffffffffffffffffffffffffffffffffffffffff16815260200190815260200160002060008473ffffffffffffffffffffffffffffffffffffffff1673ffffffffffffffffffffffffffffffffffffffff16815260200190815260200160002060000160009054906101000a900473ffffffffffffffffffffffffffffffffffffffff1673ffffffffffffffffffffffffffffffffffffffff16036139e5576040517f08c379a00000000000000000000000000000000000000000000000000000000081526004016139dc906158cc565b60405180910390fd5b600660008473ffffffffffffffffffffffffffffffffffffffff1673ffffffffffffffffffffffffffffffffffffffff168152602001908152602001600020829080600181540180825580915050600190039060005260206000200160009091909190916101000a81548173ffffffffffffffffffffffffffffffffffffffff021916908373ffffffffffffffffffffffffffffffffffffffff160217905550600860008373ffffffffffffffffffffffffffffffffffffffff1673ffffffffffffffffffffffffffffffffffffffff168152602001908152602001600020600560008573ffffffffffffffffffffffffffffffffffffffff1673ffffffffffffffffffffffffffffffffffffffff16815260200190815260200160002060008473ffffffffffffffffffffffffffffffffffffffff1673ffffffffffffffffffffffffffffffffffffffff1681526020019081526020016000206000820160009054906101000a900473ffffffffffffffffffffffffffffffffffffffff168160000160006101000a81548173ffffffffffffffffffffffffffffffffffffffff021916908373ffffffffffffffffffffffffffffffffffffffff1602179055506001820181600101908054613bbb90614ff8565b613bc6929190614404565b50905050600360008473ffffffffffffffffffffffffffffffffffffffff1673ffffffffffffffffffffffffffffffffffffffff16815260200190815260200160002080549050600960008473ffffffffffffffffffffffffffffffffffffffff1673ffffffffffffffffffffffffffffffffffffffff1681526020019081526020016000206000016000828254613c5e9190615029565b92505081905550600960008373ffffffffffffffffffffffffffffffffffffffff1673ffffffffffffffffffffffffffffffffffffffff1681526020019081526020016000206001016000815480929190613cb890614f81565b9190505550600c60008473ffffffffffffffffffffffffffffffffffffffff1673ffffffffffffffffffffffffffffffffffffffff168152602001908152602001600020600860008473ffffffffffffffffffffffffffffffffffffffff1673ffffffffffffffffffffffffffffffffffffffff16815260200190815260200160002090806001815401808255809150506001900390600052602060002090600202016000909190919091506000820160009054906101000a900473ffffffffffffffffffffffffffffffffffffffff168160000160006101000a81548173ffffffffffffffffffffffffffffffffffffffff021916908373ffffffffffffffffffffffffffffffffffffffff1602179055506001820181600101908054613ddf90614ff8565b613dea929190614404565b505050505050565b60096020528060005260406000206000915090508060000154908060010154905082565b60603373ffffffffffffffffffffffffffffffffffffffff168273ffffffffffffffffffffffffffffffffffffffff1614613e86576040517f08c379a0000000000000000000000000000000000000000000000000000000008152600401613e7d90615393565b60405180910390fd5b8173ffffffffffffffffffffffffffffffffffffffff16600260008473ffffffffffffffffffffffffffffffffffffffff1673ffffffffffffffffffffffffffffffffffffffff16815260200190815260200160002060000160009054906101000a900473ffffffffffffffffffffffffffffffffffffffff1673ffffffffffffffffffffffffffffffffffffffff1614613f56576040517f08c379a0000000000000000000000000000000000000000000000000000000008152600401613f4d906153ff565b60405180910390fd5b600a60008373ffffffffffffffffffffffffffffffffffffffff1673ffffffffffffffffffffffffffffffffffffffff168152602001908152602001600020805480602002602001604051908101604052809291908181526020016000905b828210156140cf57838290600052602060002090600202016040518060400160405290816000820160009054906101000a900473ffffffffffffffffffffffffffffffffffffffff1673ffffffffffffffffffffffffffffffffffffffff1673ffffffffffffffffffffffffffffffffffffffff16815260200160018201805461403e90614ff8565b80601f016020809104026020016040519081016040528092919081815260200182805461406a90614ff8565b80156140b75780601f1061408c576101008083540402835291602001916140b7565b820191906000526020600020905b81548152906001019060200180831161409a57829003601f168201915b50505050508152505081526020019060010190613fb5565b505050509050919050565b600360008373ffffffffffffffffffffffffffffffffffffffff1673ffffffffffffffffffffffffffffffffffffffff16815260200190815260200160002080549050600960008373ffffffffffffffffffffffffffffffffffffffff1673ffffffffffffffffffffffffffffffffffffffff168152602001908152602001600020600001600082825461416e919061551d565b925050819055506001600960008373ffffffffffffffffffffffffffffffffffffffff1673ffffffffffffffffffffffffffffffffffffffff16815260200190815260200160002060010160008282546141c8919061551d565b925050819055505050565b6000600660008373ffffffffffffffffffffffffffffffffffffffff1673ffffffffffffffffffffffffffffffffffffffff16815260200190815260200160002080548060200260200160405190810160405280929190818152602001828054801561429457602002820191906000526020600020905b8160009054906101000a900473ffffffffffffffffffffffffffffffffffffffff1673ffffffffffffffffffffffffffffffffffffffff168152602001906001019080831161424a575b5050505050905060005b815181101561432c57600960008383815181106142be576142bd614f23565b5b602002602001015173ffffffffffffffffffffffffffffffffffffffff1673ffffffffffffffffffffffffffffffffffffffff168152602001908152602001600020600001600081548092919061431490614f81565b9190505550808061432490614f81565b91505061429e565b505050565b6040518060600160405280600073ffffffffffffffffffffffffffffffffffffffff168152602001600073ffffffffffffffffffffffffffffffffffffffff168152602001606081525090565b82805461438a90614ff8565b90600052602060002090601f0160209004810192826143ac57600085556143f3565b82601f106143c557805160ff19168380011785556143f3565b828001600101855582156143f3579182015b828111156143f25782518255916020019190600101906143d7565b5b50905061440091906144d1565b5090565b82805461441090614ff8565b90600052602060002090601f0160209004810192826144325760008555614480565b82601f106144435780548555614480565b8280016001018555821561448057600052602060002091601f016020900482015b8281111561447f578254825591600101919060010190614464565b5b50905061448d91906144d1565b5090565b50805461449d90614ff8565b6000825580601f106144af57506144ce565b601f0160209004906000526020600020908101906144cd91906144d1565b5b50565b5b808211156144ea5760008160009055506001016144d2565b5090565b600082825260208201905092915050565b7f7265636569766500000000000000000000000000000000000000000000000000600082015250565b60006145356007836144ee565b9150614540826144ff565b602082019050919050565b600073ffffffffffffffffffffffffffffffffffffffff82169050919050565b60006145768261454b565b9050919050565b6145868161456b565b82525050565b6000819050919050565b61459f8161458c565b82525050565b600082825260208201905092915050565b50565b60006145c66000836145a5565b91506145d1826145b6565b600082019050919050565b600060808201905081810360008301526145f581614528565b9050614604602083018561457d565b6146116040830184614596565b8181036060830152614622816145b9565b90509392505050565b7f66616c6c6261636b000000000000000000000000000000000000000000000000600082015250565b60006146616008836144ee565b915061466c8261462b565b602082019050919050565b82818337600083830152505050565b6000601f19601f8301169050919050565b60006146a383856145a5565b93506146b0838584614677565b6146b983614686565b840190509392505050565b600060808201905081810360008301526146dd81614654565b90506146ec602083018761457d565b6146f96040830186614596565b818103606083015261470c818486614697565b905095945050505050565b600081519050919050565b600082825260208201905092915050565b6000819050602082019050919050565b61474c8161456b565b82525050565b600081519050919050565b600082825260208201905092915050565b60005b8381101561478c578082015181840152602081019050614771565b8381111561479b576000848401525b50505050565b60006147ac82614752565b6147b6818561475d565b93506147c681856020860161476e565b6147cf81614686565b840191505092915050565b60006060830160008301516147f26000860182614743565b5060208301516148056020860182614743565b506040830151848203604086015261481d82826147a1565b9150508091505092915050565b600061483683836147da565b905092915050565b6000602082019050919050565b600061485682614717565b6148608185614722565b93508360208202850161487285614733565b8060005b858110156148ae578484038952815161488f858261482a565b945061489a8361483e565b925060208a01995050600181019050614876565b50829750879550505050505092915050565b600060208201905081810360008301526148da818461484b565b905092915050565b600080fd5b600080fd5b6148f58161456b565b811461490057600080fd5b50565b600081359050614912816148ec565b92915050565b60006020828403121561492e5761492d6148e2565b5b600061493c84828501614903565b91505092915050565b60008115159050919050565b61495a81614945565b82525050565b60006020820190506149756000830184614951565b92915050565b600080fd5b600080fd5b600080fd5b60008083601f8401126149a05761499f61497b565b5b8235905067ffffffffffffffff8111156149bd576149bc614980565b5b6020830191508360018202830111156149d9576149d8614985565b5b9250929050565b600080602083850312156149f7576149f66148e2565b5b600083013567ffffffffffffffff811115614a1557614a146148e7565b5b614a218582860161498a565b92509250509250929050565b600081519050919050565b600082825260208201905092915050565b6000819050602082019050919050565b6000604083016000830151614a716000860182614743565b5060208301518482036020860152614a8982826147a1565b9150508091505092915050565b6000614aa28383614a59565b905092915050565b6000602082019050919050565b6000614ac282614a2d565b614acc8185614a38565b935083602082028501614ade85614a49565b8060005b85811015614b1a5784840389528151614afb8582614a96565b9450614b0683614aaa565b925060208a01995050600181019050614ae2565b50829750879550505050505092915050565b60006020820190508181036000830152614b468184614ab7565b905092915050565b60008060408385031215614b6557614b646148e2565b5b6000614b7385828601614903565b9250506020614b8485828601614903565b9150509250929050565b6000602082019050614ba3600083018461457d565b92915050565b60008060008060608587031215614bc357614bc26148e2565b5b6000614bd187828801614903565b9450506020614be287828801614903565b935050604085013567ffffffffffffffff811115614c0357614c026148e7565b5b614c0f8782880161498a565b925092505092959194509250565b600081519050919050565b600082825260208201905092915050565b6000819050602082019050919050565b6000604083016000830151614c616000860182614743565b5060208301518482036020860152614c7982826147a1565b9150508091505092915050565b6000614c928383614c49565b905092915050565b6000602082019050919050565b6000614cb282614c1d565b614cbc8185614c28565b935083602082028501614cce85614c39565b8060005b85811015614d0a5784840389528151614ceb8582614c86565b9450614cf683614c9a565b925060208a01995050600181019050614cd2565b50829750879550505050505092915050565b60006020820190508181036000830152614d368184614ca7565b905092915050565b6000604082019050614d536000830185614596565b614d606020830184614596565b9392505050565b600081519050919050565b600082825260208201905092915050565b6000819050602082019050919050565b6000604083016000830151614dab6000860182614743565b5060208301518482036020860152614dc382826147a1565b9150508091505092915050565b6000614ddc8383614d93565b905092915050565b6000602082019050919050565b6000614dfc82614d67565b614e068185614d72565b935083602082028501614e1885614d83565b8060005b85811015614e545784840389528151614e358582614dd0565b9450614e4083614de4565b925060208a01995050600181019050614e1c565b50829750879550505050505092915050565b60006020820190508181036000830152614e808184614df1565b905092915050565b7f4e6f2073756368206d65646963616c20696e7374697475746500000000000000600082015250565b6000614ebe6019836144ee565b9150614ec982614e88565b602082019050919050565b60006020820190508181036000830152614eed81614eb1565b9050919050565b7f4e487b7100000000000000000000000000000000000000000000000000000000600052604160045260246000fd5b7f4e487b7100000000000000000000000000000000000000000000000000000000600052603260045260246000fd5b7f4e487b7100000000000000000000000000000000000000000000000000000000600052601160045260246000fd5b6000614f8c8261458c565b91507fffffffffffffffffffffffffffffffffffffffffffffffffffffffffffffffff8203614fbe57614fbd614f52565b5b600182019050919050565b7f4e487b7100000000000000000000000000000000000000000000000000000000600052602260045260246000fd5b6000600282049050600182168061501057607f821691505b60208210810361502357615022614fc9565b5b50919050565b60006150348261458c565b915061503f8361458c565b9250827fffffffffffffffffffffffffffffffffffffffffffffffffffffffffffffffff0382111561507457615073614f52565b5b828201905092915050565b7f4e487b7100000000000000000000000000000000000000000000000000000000600052601260045260246000fd5b60006150b98261458c565b91506150c48361458c565b9250826150d4576150d361507f565b5b828204905092915050565b7f4661696c65642073656e64000000000000000000000000000000000000000000600082015250565b6000615115600b836144ee565b9150615120826150df565b602082019050919050565b6000602082019050818103600083015261514481615108565b9050919050565b7f416c72656164792065786973747320646f63746f72207769746820746861742060008201527f6164647265737300000000000000000000000000000000000000000000000000602082015250565b60006151a76027836144ee565b91506151b28261514b565b604082019050919050565b600060208201905081810360008301526151d68161519a565b9050919050565b7f416c726561647920657869737473206d65646963616c20696e7374697475746560008201527f2077697468207468617420616464726573730000000000000000000000000000602082015250565b60006152396032836144ee565b9150615244826151dd565b604082019050919050565b600060208201905081810360008301526152688161522c565b9050919050565b7f43616c6c6572206973206e6f742074686520646f63746f720000000000000000600082015250565b60006152a56018836144ee565b91506152b08261526f565b602082019050919050565b600060208201905081810360008301526152d481615298565b9050919050565b7f4e6f207375636820646f63746f72206578697374730000000000000000000000600082015250565b60006153116015836144ee565b915061531c826152db565b602082019050919050565b6000602082019050818103600083015261534081615304565b9050919050565b7f43616c6c6572206973206e6f74207468652070617469656e7400000000000000600082015250565b600061537d6019836144ee565b915061538882615347565b602082019050919050565b600060208201905081810360008301526153ac81615370565b9050919050565b7f4e6f20737563682070617469656e742065786973747300000000000000000000600082015250565b60006153e96016836144ee565b91506153f4826153b3565b602082019050919050565b60006020820190508181036000830152615418816153dc565b9050919050565b7f4e6f2073756368206d65646963616c20696e7374697475746520657869737473600082015250565b60006154556020836144ee565b91506154608261541f565b602082019050919050565b6000602082019050818103600083015261548481615448565b9050919050565b7f43616c6c657220646f6573206e6f74207368617265206461746120776974682060008201527f7468697320696e73746974757465000000000000000000000000000000000000602082015250565b60006154e7602e836144ee565b91506154f28261548b565b604082019050919050565b60006020820190508181036000830152615516816154da565b9050919050565b60006155288261458c565b91506155338361458c565b92508282101561554657615545614f52565b5b828203905092915050565b7f4e487b7100000000000000000000000000000000000000000000000000000000600052603160045260246000fd5b7f416c7265616479206578697374732070617469656e742077697468207468617460008201527f2061646472657373000000000000000000000000000000000000000000000000602082015250565b60006155dc6028836144ee565b91506155e782615580565b604082019050919050565b6000602082019050818103600083015261560b816155cf565b9050919050565b7f546869732069736e2774206f6e65206f66207468652070617469656e7427732060008201527f646f63746f727300000000000000000000000000000000000000000000000000602082015250565b600061566e6027836144ee565b915061567982615612565b604082019050919050565b6000602082019050818103600083015261569d81615661565b9050919050565b7f4f6e6c7920746865206f776e65722063616e206368616e676520746865206f7760008201527f6e65722100000000000000000000000000000000000000000000000000000000602082015250565b60006157006024836144ee565b915061570b826156a4565b604082019050919050565b6000602082019050818103600083015261572f816156f3565b9050919050565b7f5468697320646f63746f722068617320616c7265616479206265656e2061646460008201527f6564206279207468652070617469656e74000000000000000000000000000000602082015250565b60006157926031836144ee565b915061579d82615736565b604082019050919050565b600060208201905081810360008301526157c181615785565b9050919050565b7f43616c6c6572206973206e6f742074686520646f63746f72206f66207468697360008201527f2070617469656e74000000000000000000000000000000000000000000000000602082015250565b60006158246028836144ee565b915061582f826157c8565b604082019050919050565b6000602082019050818103600083015261585381615817565b9050919050565b7f54686973206d65646963616c20696e737469747574652068617320616c72656160008201527f6479206265656e206164646564206279207468652070617469656e7400000000602082015250565b60006158b6603c836144ee565b91506158c18261585a565b604082019050919050565b600060208201905081810360008301526158e5816158a9565b905091905056fea26469706673582212209d97292fdb5a57ac64671035bf10be9d27032e7f1cfb4df7d1dbe078f510375964736f6c634300080e0033",
  "immutableReferences": {},
  "source": "//SPDX-License-Identifier: UNLICENSED\r\n\r\npragma solidity >=0.7.0 <0.9.0;\r\n\r\nlibrary MyLibrary {\r\n    struct Doctor {\r\n        address doctorAddress;\r\n        string name;\r\n    }\r\n \r\n    struct Patient{\r\n        address patientAddress;\r\n        string name;\r\n    }\r\n \r\n    struct MedicalInstitute{\r\n        address instituteAddress;\r\n        string name;\r\n    }\r\n \r\n    struct MedInstituteData{\r\n        uint256 numOfMedExams;\r\n        uint256 numOfPatientsSharingData;\r\n    }\r\n \r\n    struct MedicalExamination {\r\n        address doctorAddress;\r\n        address patientAddress;\r\n        string data;\r\n    }\r\n}\r\n\r\ncontract PatientX {\r\n    address public owner;\r\n\r\n    address[] private patientAddresses;\r\n    mapping(address => MyLibrary.Patient) private allPatientsByAddress;\r\n    mapping(address => MyLibrary.MedicalExamination[]) private allMedicalExaminationsByPatientAddress;\r\n    mapping(address => mapping(address => MyLibrary.Doctor)) private allDoctorsByPatientAddress;\r\n    mapping(address => mapping(address => MyLibrary.MedicalInstitute)) private allMedicalInstitutesByPatientAddress;\r\n    mapping(address => address[]) private allMedicalInstituteAddressesByPatientAddress;\r\n\r\n    mapping(address => MyLibrary.Doctor) private allDoctorsByAddress;\r\n\r\n    mapping(address => MyLibrary.MedicalInstitute) private allMedicalInstitutesByAddress;\r\n    mapping(address => MyLibrary.MedInstituteData) public allInstituteDataByAddress;\r\n\r\n    mapping(address => MyLibrary.Doctor[]) private doctorsOfPatient;\r\n    mapping(address => MyLibrary.Patient[]) private patientsOfDoctor;\r\n    mapping(address => MyLibrary.MedicalInstitute[]) private medicalInstitutesOfPatient;\r\n\r\n    mapping(address => bool) public suchPatientExists;\r\n    mapping(address => bool) public suchDoctorExists;\r\n    mapping(address => bool) public suchMedicalInstituteExists;\r\n\r\n    event Log(string func, address sender, uint256 value, bytes data);\r\n    event OwnerSet(address indexed oldOwner, address indexed newOwner);\r\n\r\n    constructor() {\r\n        owner = msg.sender;\r\n        emit OwnerSet(address(0), owner);\r\n    }\r\n\r\n    // ether is sent to the contract\r\n    fallback() external payable {\r\n        payable(owner).transfer(msg.value);\r\n        emit Log(\"fallback\", msg.sender, msg.value, msg.data);\r\n    }\r\n\r\n    // ether is sent to the contract without data\r\n    receive() external payable {\r\n        payable(owner).transfer(msg.value);\r\n        emit Log(\"receive\", msg.sender, msg.value, \"\");\r\n    }\r\n\r\n    modifier isOwner() {\r\n        require(msg.sender == owner, \"Only the owner can change the owner!\");\r\n        _;\r\n    }\r\n\r\n    modifier isPatient(address _patientAddress) {\r\n        require(_patientAddress == msg.sender, \"Caller is not the patient\");\r\n        _;\r\n    }\r\n\r\n    function changeOwner(address _newOwner) external isOwner {\r\n        emit OwnerSet(owner, _newOwner);\r\n        owner = _newOwner;\r\n    }\r\n\r\n    // enlistig users\r\n\r\n    function enlistPatient(string calldata _name) external {\r\n        require(allPatientsByAddress[msg.sender].patientAddress != msg.sender, \"Already exists patient with that address\");\r\n        allPatientsByAddress[msg.sender] = MyLibrary.Patient({ patientAddress: msg.sender, name: _name });\r\n        patientAddresses.push(msg.sender);\r\n        suchPatientExists[msg.sender] = true;\r\n    }\r\n\r\n    function enlistDoctor(string calldata _name) external {\r\n        require(allDoctorsByAddress[msg.sender].doctorAddress != msg.sender, \"Already exists doctor with that address\");\r\n        allDoctorsByAddress[msg.sender] = MyLibrary.Doctor({ doctorAddress: msg.sender, name: _name });\r\n        suchDoctorExists[msg.sender] = true;\r\n    }\r\n\r\n    function enlistMedicalInstitute(string calldata _name) external {\r\n        require(allMedicalInstitutesByAddress[tx.origin].instituteAddress != tx.origin, \"Already exists medical institute with that address\");\r\n        allMedicalInstitutesByAddress[tx.origin] = MyLibrary.MedicalInstitute({ instituteAddress: tx.origin, name: _name });\r\n        allInstituteDataByAddress[tx.origin].numOfPatientsSharingData = 0;\r\n        suchMedicalInstituteExists[tx.origin] = true;\r\n    }\r\n\r\n    // doctor functionality\r\n\r\n    function addNewMedicalExaminationOfPatientByDoctor(address _doctorAddress, address _patientAddress, string calldata _data) external {\r\n        require(_doctorAddress == msg.sender, \"Caller is not the doctor\");\r\n        require(allPatientsByAddress[_patientAddress].patientAddress == _patientAddress, \"No such patient exists\");\r\n        require(allDoctorsByPatientAddress[_patientAddress][_doctorAddress].doctorAddress ==  _doctorAddress, \"Caller is not the doctor of this patient\");\r\n\r\n        MyLibrary.MedicalExamination memory medExam = MyLibrary.MedicalExamination(_doctorAddress, _patientAddress, _data);\r\n        allMedicalExaminationsByPatientAddress[_patientAddress].push(medExam);\r\n\r\n        updateInstitutesDataNewMedRecord(_patientAddress);\r\n    }\r\n\r\n    //helper function\r\n    function updateInstitutesDataNewMedRecord(address _patientAddress) private {\r\n        address[] memory institutesOfPatient = allMedicalInstituteAddressesByPatientAddress[_patientAddress];\r\n        for (uint256 i = 0; i < institutesOfPatient.length; i++) {\r\n            allInstituteDataByAddress[institutesOfPatient[i]].numOfMedExams++;\r\n        }\r\n    }\r\n\r\n    function getAllPatientsOfDoctor(address _doctorAddress) external view returns (MyLibrary.Patient[] memory){\r\n        require(_doctorAddress == msg.sender, \"Caller is not the doctor\");\r\n        require(allDoctorsByAddress[_doctorAddress].doctorAddress == _doctorAddress, \"No such doctor exists\");\r\n\r\n        return patientsOfDoctor[_doctorAddress];\r\n    }\r\n\r\n    // patient functionality\r\n\r\n    function addDoctorToPatient(address _patientAddress, address _doctorAddress) external isPatient(_patientAddress) {\r\n        require(allPatientsByAddress[_patientAddress].patientAddress == _patientAddress, \"No such patient exists\");\r\n        require(allDoctorsByAddress[_doctorAddress].doctorAddress == _doctorAddress, \"No such doctor exists\");\r\n        require(allDoctorsByPatientAddress[_patientAddress][_doctorAddress].doctorAddress != _doctorAddress, \"This doctor has already been added by the patient\");\r\n\r\n        allDoctorsByPatientAddress[_patientAddress][_doctorAddress] = allDoctorsByAddress[_doctorAddress];\r\n        doctorsOfPatient[_patientAddress].push(allDoctorsByAddress[_doctorAddress]);\r\n        patientsOfDoctor[_doctorAddress].push(allPatientsByAddress[_patientAddress]);\r\n    }\r\n\r\n    function addInstituteToPatient(address _patientAddress, address _medicalInstituteAddress) external isPatient(_patientAddress) {\r\n        require(allPatientsByAddress[_patientAddress].patientAddress == _patientAddress, \"No such patient exists\");\r\n        require(allMedicalInstitutesByAddress[_medicalInstituteAddress].instituteAddress == _medicalInstituteAddress, \"No such medical institute exists\");\r\n        require(allMedicalInstitutesByPatientAddress[_patientAddress][_medicalInstituteAddress].instituteAddress != _medicalInstituteAddress, \"This medical institute has already been added by the patient\");\r\n\r\n        allMedicalInstituteAddressesByPatientAddress[_patientAddress].push(_medicalInstituteAddress);\r\n        allMedicalInstitutesByPatientAddress[_patientAddress][_medicalInstituteAddress] = allMedicalInstitutesByAddress[_medicalInstituteAddress];\r\n        allInstituteDataByAddress[_medicalInstituteAddress].numOfMedExams += allMedicalExaminationsByPatientAddress[_patientAddress].length;\r\n        allInstituteDataByAddress[_medicalInstituteAddress].numOfPatientsSharingData++;\r\n        medicalInstitutesOfPatient[_patientAddress].push(allMedicalInstitutesByAddress[_medicalInstituteAddress]);\r\n    }\r\n\r\n    function removeInstituteFromPatient(address _patientAddress, address _medicalInstituteAddress) external isPatient(_patientAddress) {\r\n        require(allPatientsByAddress[_patientAddress].patientAddress == _patientAddress, \"No such patient exists\");\r\n        require(allMedicalInstitutesByAddress[_medicalInstituteAddress].instituteAddress == _medicalInstituteAddress, \"No such medical institute exists\");\r\n        require(allMedicalInstitutesByPatientAddress[_patientAddress][_medicalInstituteAddress].instituteAddress == _medicalInstituteAddress, \"Caller does not share data with this institute\");\r\n\r\n        address[] storage patientInstitutesAddresses = allMedicalInstituteAddressesByPatientAddress[_patientAddress];\r\n        for (uint256 i = 0; i < patientInstitutesAddresses.length; i++) {\r\n            if (patientInstitutesAddresses[i] == _medicalInstituteAddress) {\r\n                patientInstitutesAddresses[i] = patientInstitutesAddresses[patientInstitutesAddresses.length - 1];\r\n                patientInstitutesAddresses.pop();\r\n                break;\r\n            }\r\n        }\r\n\r\n        MyLibrary.MedicalInstitute[] storage patientInstitutes = medicalInstitutesOfPatient[_patientAddress];\r\n        for (uint256 i = 0; i < patientInstitutes.length; i++) {\r\n            if (patientInstitutes[i].instituteAddress == _medicalInstituteAddress) {\r\n                patientInstitutes[i] = patientInstitutes[patientInstitutes.length - 1];\r\n                patientInstitutes.pop();\r\n                break;\r\n            }\r\n        }\r\n\r\n        delete allMedicalInstitutesByPatientAddress[_patientAddress][_medicalInstituteAddress];\r\n        updateInstitutesDataPatientRemoved(_patientAddress,_medicalInstituteAddress);\r\n    }\r\n\r\n    // helper funciton\r\n    function updateInstitutesDataPatientRemoved(address _patientAddress, address _medicalInstituteAddress) private {\r\n        allInstituteDataByAddress[_medicalInstituteAddress].numOfMedExams -= allMedicalExaminationsByPatientAddress[_patientAddress].length;\r\n        allInstituteDataByAddress[_medicalInstituteAddress].numOfPatientsSharingData -= 1;\r\n    }\r\n\r\n    function removeDoctorFromPatient(address _patientAddress, address _doctorAddress) external isPatient(_patientAddress) {\r\n        require(allPatientsByAddress[_patientAddress].patientAddress == _patientAddress, \"No such patient exists\");\r\n        require(allDoctorsByAddress[_doctorAddress].doctorAddress == _doctorAddress, \"No such doctor exists\");\r\n        require(allDoctorsByPatientAddress[_patientAddress][_doctorAddress].doctorAddress == _doctorAddress, \"This isn't one of the patient's doctors\");\r\n\r\n        MyLibrary.Doctor[] storage patientDoctors = doctorsOfPatient[_patientAddress];\r\n        for (uint256 i = 0; i < patientDoctors.length; i++) {\r\n            if (patientDoctors[i].doctorAddress == _doctorAddress) {\r\n                patientDoctors[i] = patientDoctors[patientDoctors.length - 1];\r\n                patientDoctors.pop();\r\n                break;\r\n            }\r\n        }\r\n\r\n        MyLibrary.Patient[] storage doctorPatients = patientsOfDoctor[_doctorAddress];\r\n        for (uint256 i = 0; i < doctorPatients.length; i++) {\r\n            if (doctorPatients[i].patientAddress == _patientAddress) {\r\n                doctorPatients[i] = doctorPatients[doctorPatients.length - 1];\r\n                doctorPatients.pop();\r\n                break;\r\n            }\r\n        }\r\n\r\n        delete allDoctorsByPatientAddress[_patientAddress][_doctorAddress];\r\n    }\r\n\r\n    function getAllDoctorsOfPatient(address _patientAddress) external view returns (MyLibrary.Doctor[] memory){\r\n        require(_patientAddress == msg.sender, \"Caller is not the patient\");\r\n        require(allPatientsByAddress[_patientAddress].patientAddress == _patientAddress, \"No such patient exists\");\r\n\r\n        return doctorsOfPatient[_patientAddress];\r\n    }\r\n\r\n    function getAllInstitutesOfPatient(address _patientAddress) external view returns (MyLibrary.MedicalInstitute[] memory){\r\n        require(_patientAddress == msg.sender, \"Caller is not the patient\");\r\n        require(allPatientsByAddress[_patientAddress].patientAddress == _patientAddress, \"No such patient exists\");\r\n\r\n        return medicalInstitutesOfPatient[_patientAddress];\r\n    }\r\n\r\n    // institute functionality\r\n\r\n    function getMedicalExaminationsShareable() external payable returns (MyLibrary.MedicalExamination[] memory) {\r\n        require(tx.origin == allMedicalInstitutesByAddress[tx.origin].instituteAddress, \"No such medical institute\");\r\n\r\n        MyLibrary.MedicalExamination[] memory shareableMedicalExaminations = new MyLibrary.MedicalExamination[](allInstituteDataByAddress[tx.origin].numOfMedExams);\r\n        uint256 shareableMedicalExaminationsIterator = 0;\r\n\r\n        address[] memory addressesToSendKinti = new address[](allInstituteDataByAddress[tx.origin].numOfPatientsSharingData);\r\n        uint256 sendKintiIterator = 0;\r\n\r\n        for (uint256 i = 0; i < patientAddresses.length; i++) {\r\n            if (allMedicalInstitutesByPatientAddress[patientAddresses[i]][tx.origin].instituteAddress == tx.origin) {\r\n                addressesToSendKinti[sendKintiIterator] = patientAddresses[i];\r\n                sendKintiIterator++;\r\n\r\n                MyLibrary.MedicalExamination[] memory patientExaminations = allMedicalExaminationsByPatientAddress[patientAddresses[i]];\r\n                for (uint256 j = 0; j < patientExaminations.length; j++) {\r\n                    MyLibrary.MedicalExamination memory medExam = patientExaminations[j];\r\n                    shareableMedicalExaminations[shareableMedicalExaminationsIterator] = medExam;\r\n                    shareableMedicalExaminationsIterator++;\r\n                }\r\n            }\r\n        }\r\n\r\n        // owner will also receive kinti\r\n        uint256 kintiPerPerson = 1e16 / (addressesToSendKinti.length + 1);\r\n\r\n        for (uint256 i = 0; i < addressesToSendKinti.length; i++) {\r\n            payable(addressesToSendKinti[i]).transfer(kintiPerPerson);\r\n        }\r\n\r\n        bool success = payable(owner).send(kintiPerPerson);\r\n        require(success, \"Failed send\");\r\n\r\n        return shareableMedicalExaminations;\r\n    }\r\n}\r\n",
  "sourcePath": "C:\\Users\\Martin\\Documents\\asd\\server\\contracts\\PatientX.sol",
  "compiler": {
    "name": "solc",
    "version": "0.8.14+commit.80d49f37.Emscripten.clang"
  },
  "schemaVersion": "3.4.7",
  "updatedAt": "2022-06-12T21:03:25.298Z",
  "networkType": "ethereum",
  "devdoc": {
    "kind": "dev",
    "methods": {},
    "version": 1
  },
  "userdoc": {
    "kind": "user",
    "methods": {},
    "version": 1
  }
}